{
  "_format": "hh-sol-artifact-1",
  "contractName": "SimpleEscrow",
  "sourceName": "contracts/SimpleEscrow.sol",
  "abi": [
    {
      "inputs": [],
      "stateMutability": "nonpayable",
      "type": "constructor"
    },
    {
      "anonymous": false,
      "inputs": [
        {
          "indexed": true,
          "internalType": "bytes32",
          "name": "escrowId",
          "type": "bytes32"
        },
        {
          "indexed": true,
          "internalType": "address",
          "name": "confirmer",
          "type": "address"
        }
      ],
      "name": "EscrowConfirmed",
      "type": "event"
    },
    {
      "anonymous": false,
      "inputs": [
        {
          "indexed": true,
          "internalType": "bytes32",
          "name": "escrowId",
          "type": "bytes32"
        },
        {
          "indexed": true,
          "internalType": "address",
          "name": "buyer",
          "type": "address"
        },
        {
          "indexed": true,
          "internalType": "address",
          "name": "seller",
          "type": "address"
        },
        {
          "indexed": false,
          "internalType": "address",
          "name": "token",
          "type": "address"
        },
        {
          "indexed": false,
          "internalType": "uint256",
          "name": "amount",
          "type": "uint256"
        }
      ],
      "name": "EscrowCreated",
      "type": "event"
    },
    {
      "anonymous": false,
      "inputs": [
        {
          "indexed": true,
          "internalType": "bytes32",
          "name": "escrowId",
          "type": "bytes32"
        },
        {
          "indexed": true,
          "internalType": "address",
          "name": "disputer",
          "type": "address"
        }
      ],
      "name": "EscrowDisputed",
      "type": "event"
    },
    {
      "anonymous": false,
      "inputs": [
        {
          "indexed": true,
          "internalType": "bytes32",
          "name": "escrowId",
          "type": "bytes32"
        },
        {
          "indexed": true,
          "internalType": "address",
          "name": "seller",
          "type": "address"
        },
        {
          "indexed": false,
          "internalType": "uint256",
          "name": "amount",
          "type": "uint256"
        }
      ],
      "name": "EscrowRefunded",
      "type": "event"
    },
    {
      "anonymous": false,
      "inputs": [
        {
          "indexed": true,
          "internalType": "bytes32",
          "name": "escrowId",
          "type": "bytes32"
        },
        {
          "indexed": true,
          "internalType": "address",
          "name": "buyer",
          "type": "address"
        },
        {
          "indexed": false,
          "internalType": "uint256",
          "name": "amount",
          "type": "uint256"
        }
      ],
      "name": "EscrowReleased",
      "type": "event"
    },
    {
      "anonymous": false,
      "inputs": [
        {
          "indexed": true,
          "internalType": "bytes32",
          "name": "escrowId",
          "type": "bytes32"
        },
        {
          "indexed": false,
          "internalType": "bool",
          "name": "released",
          "type": "bool"
        }
      ],
      "name": "EscrowResolved",
      "type": "event"
    },
    {
      "inputs": [],
      "name": "ESCROW_FEE_PERCENT",
      "outputs": [
        {
          "internalType": "uint256",
          "name": "",
          "type": "uint256"
        }
      ],
      "stateMutability": "view",
      "type": "function"
    },
    {
      "inputs": [],
      "name": "ESCROW_TIMEOUT",
      "outputs": [
        {
          "internalType": "uint256",
          "name": "",
          "type": "uint256"
        }
      ],
      "stateMutability": "view",
      "type": "function"
    },
    {
      "inputs": [],
      "name": "NETWORK_FEE",
      "outputs": [
        {
          "internalType": "uint256",
          "name": "",
          "type": "uint256"
        }
      ],
      "stateMutability": "view",
      "type": "function"
    },
    {
      "inputs": [
        {
          "internalType": "address",
          "name": "operator",
          "type": "address"
        }
      ],
      "name": "addAuthorizedOperator",
      "outputs": [],
      "stateMutability": "nonpayable",
      "type": "function"
    },
    {
      "inputs": [
        {
          "internalType": "address",
          "name": "token",
          "type": "address"
        }
      ],
      "name": "addAuthorizedToken",
      "outputs": [],
      "stateMutability": "nonpayable",
      "type": "function"
    },
    {
      "inputs": [
        {
          "internalType": "address",
          "name": "",
          "type": "address"
        }
      ],
      "name": "authorizedOperators",
      "outputs": [
        {
          "internalType": "bool",
          "name": "",
          "type": "bool"
        }
      ],
      "stateMutability": "view",
      "type": "function"
    },
    {
      "inputs": [
        {
          "internalType": "address",
          "name": "",
          "type": "address"
        }
      ],
      "name": "authorizedTokens",
      "outputs": [
        {
          "internalType": "bool",
          "name": "",
          "type": "bool"
        }
      ],
      "stateMutability": "view",
      "type": "function"
    },
    {
      "inputs": [
        {
          "internalType": "bytes32",
          "name": "escrowId",
          "type": "bytes32"
        },
        {
          "internalType": "bool",
          "name": "isBuyer",
          "type": "bool"
        }
      ],
      "name": "confirmEscrow",
      "outputs": [],
      "stateMutability": "nonpayable",
      "type": "function"
    },
    {
      "inputs": [
        {
          "internalType": "bytes32",
          "name": "escrowId",
          "type": "bytes32"
        },
        {
          "internalType": "address",
          "name": "buyer",
          "type": "address"
        },
        {
          "internalType": "address",
          "name": "seller",
          "type": "address"
        },
        {
          "internalType": "address",
          "name": "token",
          "type": "address"
        },
        {
          "internalType": "uint256",
          "name": "amount",
          "type": "uint256"
        }
      ],
      "name": "createEscrow",
      "outputs": [],
      "stateMutability": "nonpayable",
      "type": "function"
    },
    {
      "inputs": [
        {
          "internalType": "bytes32",
          "name": "escrowId",
          "type": "bytes32"
        }
      ],
      "name": "disputeEscrow",
      "outputs": [],
      "stateMutability": "nonpayable",
      "type": "function"
    },
    {
      "inputs": [
        {
          "internalType": "bytes32",
          "name": "",
          "type": "bytes32"
        }
      ],
      "name": "escrows",
      "outputs": [
        {
          "internalType": "address",
          "name": "buyer",
          "type": "address"
        },
        {
          "internalType": "address",
          "name": "seller",
          "type": "address"
        },
        {
          "internalType": "address",
          "name": "token",
          "type": "address"
        },
        {
          "internalType": "uint256",
          "name": "amount",
          "type": "uint256"
        },
        {
          "internalType": "uint256",
          "name": "escrowFee",
          "type": "uint256"
        },
        {
          "internalType": "uint256",
          "name": "networkFee",
          "type": "uint256"
        },
        {
          "internalType": "bool",
          "name": "buyerConfirmed",
          "type": "bool"
        },
        {
          "internalType": "bool",
          "name": "sellerConfirmed",
          "type": "bool"
        },
        {
          "internalType": "bool",
          "name": "isReleased",
          "type": "bool"
        },
        {
          "internalType": "bool",
          "name": "isRefunded",
          "type": "bool"
        },
        {
          "internalType": "bool",
          "name": "isDisputed",
          "type": "bool"
        },
        {
          "internalType": "uint256",
          "name": "createdAt",
          "type": "uint256"
        },
        {
          "internalType": "uint256",
          "name": "expiresAt",
          "type": "uint256"
        }
      ],
      "stateMutability": "view",
      "type": "function"
    },
    {
      "inputs": [
        {
          "internalType": "bytes32",
          "name": "escrowId",
          "type": "bytes32"
        }
      ],
      "name": "getEscrow",
      "outputs": [
        {
          "components": [
            {
              "internalType": "address",
              "name": "buyer",
              "type": "address"
            },
            {
              "internalType": "address",
              "name": "seller",
              "type": "address"
            },
            {
              "internalType": "address",
              "name": "token",
              "type": "address"
            },
            {
              "internalType": "uint256",
              "name": "amount",
              "type": "uint256"
            },
            {
              "internalType": "uint256",
              "name": "escrowFee",
              "type": "uint256"
            },
            {
              "internalType": "uint256",
              "name": "networkFee",
              "type": "uint256"
            },
            {
              "internalType": "bool",
              "name": "buyerConfirmed",
              "type": "bool"
            },
            {
              "internalType": "bool",
              "name": "sellerConfirmed",
              "type": "bool"
            },
            {
              "internalType": "bool",
              "name": "isReleased",
              "type": "bool"
            },
            {
              "internalType": "bool",
              "name": "isRefunded",
              "type": "bool"
            },
            {
              "internalType": "bool",
              "name": "isDisputed",
              "type": "bool"
            },
            {
              "internalType": "uint256",
              "name": "createdAt",
              "type": "uint256"
            },
            {
              "internalType": "uint256",
              "name": "expiresAt",
              "type": "uint256"
            }
          ],
          "internalType": "struct SimpleEscrow.Escrow",
          "name": "",
          "type": "tuple"
        }
      ],
      "stateMutability": "view",
      "type": "function"
    },
    {
      "inputs": [
        {
          "internalType": "bytes32",
          "name": "escrowId",
          "type": "bytes32"
        }
      ],
      "name": "isEscrowActive",
      "outputs": [
        {
          "internalType": "bool",
          "name": "",
          "type": "bool"
        }
      ],
      "stateMutability": "view",
      "type": "function"
    },
    {
      "inputs": [],
      "name": "owner",
      "outputs": [
        {
          "internalType": "address",
          "name": "",
          "type": "address"
        }
      ],
      "stateMutability": "view",
      "type": "function"
    },
    {
      "inputs": [
        {
          "internalType": "bytes32",
          "name": "escrowId",
          "type": "bytes32"
        }
      ],
      "name": "refundEscrow",
      "outputs": [],
      "stateMutability": "nonpayable",
      "type": "function"
    },
    {
      "inputs": [
        {
          "internalType": "bytes32",
          "name": "escrowId",
          "type": "bytes32"
        }
      ],
      "name": "releaseEscrow",
      "outputs": [],
      "stateMutability": "nonpayable",
      "type": "function"
    },
    {
      "inputs": [
        {
          "internalType": "bytes32",
          "name": "escrowId",
          "type": "bytes32"
        },
        {
          "internalType": "bool",
          "name": "release",
          "type": "bool"
        }
      ],
      "name": "resolveDispute",
      "outputs": [],
      "stateMutability": "nonpayable",
      "type": "function"
    },
    {
      "inputs": [
        {
          "internalType": "address",
          "name": "token",
          "type": "address"
        }
      ],
      "name": "withdrawFees",
      "outputs": [],
      "stateMutability": "nonpayable",
      "type": "function"
    }
  ],
  "bytecode": "0x608060405234801561001057600080fd5b50600380546001600160a01b031916339081179091556000908152600260205260409020805460ff19166001179055611f408061004e6000396000f3fe608060405234801561001057600080fd5b50600436106101165760003560e01c80638da5cb5b116100a25780639e1422ec116100715780639e1422ec14610358578063bf89fc6114610360578063ce7ad6b114610373578063cfd2452214610386578063f023b8111461039957600080fd5b80638da5cb5b146102ed578063919444ea146103185780639bc7c5861461032b5780639be5c0241461034e57600080fd5b8063404d2cf8116100e9578063404d2cf81461028e57806343a0e3e6146102a157806347aed508146102b45780636c6cf6d5146102c75780637560e8c2146102da57600080fd5b8063164e68de1461011b578063181d989b146101305780632d83549c1461016857806330815eee14610276575b600080fd5b61012e610129366004611b4a565b6104ec565b005b61015361013e366004611b4a565b60026020526000908152604090205460ff1681565b60405190151581526020015b60405180910390f35b6101fb610176366004611b65565b6000602081905290815260409020805460018201546002830154600384015460048501546005860154600687015460078801546008909801546001600160a01b0397881698968816979095169593949293919260ff8083169361010084048216936201000081048316936301000000820484169364010000000090920490911691908d565b604080516001600160a01b039e8f1681529c8e1660208e01529a909c16998b019990995260608a0197909752608089019590955260a088019390935290151560c0870152151560e08601521515610100850152151561012084015215156101408301526101608201526101808101919091526101a00161015f565b61028062093a8081565b60405190815260200161015f565b61012e61029c366004611b4a565b61066c565b61012e6102af366004611b8f565b6106ba565b61012e6102c2366004611b65565b610b60565b6101536102d5366004611b65565b610efb565b61012e6102e8366004611b8f565b610ffb565b600354610300906001600160a01b031681565b6040516001600160a01b03909116815260200161015f565b61012e610326366004611b4a565b61128b565b610153610339366004611b4a565b60016020526000908152604090205460ff1681565b610280620186a081565b610280606481565b61012e61036e366004611b65565b6112dc565b61012e610381366004611bbf565b611658565b61012e610394366004611b65565b6119fe565b6104df6103a7366004611b65565b604080516101a081018252600080825260208201819052918101829052606081018290526080810182905260a0810182905260c0810182905260e081018290526101008101829052610120810182905261014081018290526101608101829052610180810191909152506000908152602081815260409182902082516101a08101845281546001600160a01b03908116825260018301548116938201939093526002820154909216928201929092526003820154606082015260048201546080820152600582015460a0820152600682015460ff808216151560c08401526101008083048216151560e085015262010000830482161515908401526301000000820481161515610120840152640100000000909104161515610140820152600782015461016082015260089091015461018082015290565b60405161015f9190611c14565b6003546001600160a01b0316331461051f5760405162461bcd60e51b815260040161051690611ce6565b60405180910390fd5b6040516370a0823160e01b815230600482015281906000906001600160a01b038316906370a0823190602401602060405180830381865afa158015610568573d6000803e3d6000fd5b505050506040513d601f19601f8201168201806040525081019061058c9190611d0d565b9050600081116105d45760405162461bcd60e51b81526020600482015260136024820152724e6f206665657320746f20776974686472617760681b6044820152606401610516565b60035460405163a9059cbb60e01b81526001600160a01b039182166004820152602481018390529083169063a9059cbb906044016020604051808303816000875af1158015610627573d6000803e3d6000fd5b505050506040513d601f19601f8201168201806040525081019061064b9190611d26565b6106675760405162461bcd60e51b815260040161051690611d43565b505050565b6003546001600160a01b031633146106965760405162461bcd60e51b815260040161051690611ce6565b6001600160a01b03166000908152600260205260409020805460ff19166001179055565b6003546001600160a01b031633146106e45760405162461bcd60e51b815260040161051690611ce6565b600082815260208190526040902080546001600160a01b03166107195760405162461bcd60e51b815260040161051690611d6c565b6006810154640100000000900460ff166107645760405162461bcd60e51b815260206004820152600c60248201526b139bdd08191a5cdc1d5d195960a21b6044820152606401610516565b600681015462010000900460ff1615801561078b575060068101546301000000900460ff16155b6107a75760405162461bcd60e51b815260040161051690611d9b565b600681015460ff1680156107c457506006810154610100900460ff165b6107e05760405162461bcd60e51b815260040161051690611dc6565b6002810154600582015460038301546001600160a01b039092169160009161080791611e13565b60038401546040516370a0823160e01b8152306004820152919250906001600160a01b038416906370a0823190602401602060405180830381865afa158015610854573d6000803e3d6000fd5b505050506040513d601f19601f820116820180604052508101906108789190611d0d565b10156108965760405162461bcd60e51b815260040161051690611e2c565b83156109895760068301805462ff0000191662010000179055825460405163a9059cbb60e01b81526001600160a01b039182166004820152602481018390529083169063a9059cbb906044016020604051808303816000875af1158015610901573d6000803e3d6000fd5b505050506040513d601f19601f820116820180604052508101906109259190611d26565b6109415760405162461bcd60e51b815260040161051690611d43565b82546040518281526001600160a01b039091169086907f3a9c1cd29cd3be251a72ce3c367c27dc1cb697ac4589965b76a83f9a25ca07109060200160405180910390a3610a7a565b60068301805463ff00000019166301000000179055600183015460405163a9059cbb60e01b81526001600160a01b039182166004820152602481018390529083169063a9059cbb906044016020604051808303816000875af11580156109f3573d6000803e3d6000fd5b505050506040513d601f19601f82011682018060405250810190610a179190611d26565b610a335760405162461bcd60e51b815260040161051690611d43565b60018301546040518281526001600160a01b039091169086907ffc31a7ddbe933aa6e67f3c98c183fbc87addd2b602fcfb10238d2f85cf0266179060200160405180910390a35b600483015415610b1d5760035460048481015460405163a9059cbb60e01b81526001600160a01b039384169281019290925260248201529083169063a9059cbb906044016020604051808303816000875af1158015610add573d6000803e3d6000fd5b505050506040513d601f19601f82011682018060405250810190610b019190611d26565b610b1d5760405162461bcd60e51b815260040161051690611e5a565b847fcafb63065ff3b879e667874cb9ec5b7560d4f5632ead82938ed6e053e7347dc885604051610b51911515815260200190565b60405180910390a25050505050565b3360009081526002602052604090205460ff16610b8f5760405162461bcd60e51b815260040161051690611e87565b600354600160a01b900460ff1615610bda5760405162461bcd60e51b815260206004820152600e60248201526d1499595b9d1c985b9d0818d85b1b60921b6044820152606401610516565b6003805460ff60a01b1916600160a01b179055600081815260208190526040902080546001600160a01b0316610c225760405162461bcd60e51b815260040161051690611d6c565b600681015462010000900460ff16158015610c49575060068101546301000000900460ff16155b610c655760405162461bcd60e51b815260040161051690611d9b565b600681015460ff168015610c8257506006810154610100900460ff165b610c9e5760405162461bcd60e51b815260040161051690611dc6565b6002810154600582015460038301546001600160a01b0390921691600091610cc591611e13565b60038401546040516370a0823160e01b8152306004820152919250906001600160a01b038416906370a0823190602401602060405180830381865afa158015610d12573d6000803e3d6000fd5b505050506040513d601f19601f82011682018060405250810190610d369190611d0d565b1015610d545760405162461bcd60e51b815260040161051690611e2c565b60068301805463ff00000019166301000000179055600183015460405163a9059cbb60e01b81526001600160a01b039182166004820152602481018390529083169063a9059cbb906044016020604051808303816000875af1158015610dbe573d6000803e3d6000fd5b505050506040513d601f19601f82011682018060405250810190610de29190611d26565b610dfe5760405162461bcd60e51b815260040161051690611d43565b600483015415610ea15760035460048481015460405163a9059cbb60e01b81526001600160a01b039384169281019290925260248201529083169063a9059cbb906044016020604051808303816000875af1158015610e61573d6000803e3d6000fd5b505050506040513d601f19601f82011682018060405250810190610e859190611d26565b610ea15760405162461bcd60e51b815260040161051690611e5a565b60018301546040518281526001600160a01b039091169085907ffc31a7ddbe933aa6e67f3c98c183fbc87addd2b602fcfb10238d2f85cf026617906020015b60405180910390a350506003805460ff60a01b191690555050565b60008181526020818152604080832081516101a08101835281546001600160a01b039081168083526001840154821695830195909552600283015416928101929092526003810154606083015260048101546080830152600581015460a0830152600681015460ff808216151560c08501526101008083048216151560e0860152620100008304821615159085015263010000008204811615156101208501526401000000009091041615156101408301526007810154610160830152600801546101808201529015801590610fd45750806101000151155b8015610fe35750806101200151155b8015610ff457508061018001514211155b9392505050565b600082815260208190526040902080546001600160a01b03166110305760405162461bcd60e51b815260040161051690611d6c565b600681015462010000900460ff16158015611057575060068101546301000000900460ff16155b6110a35760405162461bcd60e51b815260206004820152601860248201527f457363726f7720616c72656164792070726f63657373656400000000000000006044820152606401610516565b80600801544211156110e85760405162461bcd60e51b815260206004820152600e60248201526d115cd8dc9bddc8195e1c1a5c995960921b6044820152606401610516565b81156111a05780546001600160a01b031633146111375760405162461bcd60e51b815260206004820152600d60248201526c2737ba103a343290313abcb2b960991b6044820152606401610516565b600681015460ff161561118c5760405162461bcd60e51b815260206004820152601a60248201527f416c726561647920636f6e6669726d65642062792062757965720000000000006044820152606401610516565b60068101805460ff19166001179055611259565b60018101546001600160a01b031633146111ed5760405162461bcd60e51b815260206004820152600e60248201526d2737ba103a34329039b2b63632b960911b6044820152606401610516565b6006810154610100900460ff16156112475760405162461bcd60e51b815260206004820152601b60248201527f416c726561647920636f6e6669726d65642062792073656c6c657200000000006044820152606401610516565b60068101805461ff0019166101001790555b604051339084907f79726b70cad6fc28b44ca5a2930c98639a54f7efee87c642cadb6f9f1620901190600090a3505050565b6003546001600160a01b031633146112b55760405162461bcd60e51b815260040161051690611ce6565b6001600160a01b03166000908152600160208190526040909120805460ff19169091179055565b3360009081526002602052604090205460ff1661130b5760405162461bcd60e51b815260040161051690611e87565b600354600160a01b900460ff16156113565760405162461bcd60e51b815260206004820152600e60248201526d1499595b9d1c985b9d0818d85b1b60921b6044820152606401610516565b6003805460ff60a01b1916600160a01b179055600081815260208190526040902080546001600160a01b031661139e5760405162461bcd60e51b815260040161051690611d6c565b600681015462010000900460ff161580156113c5575060068101546301000000900460ff16155b6113e15760405162461bcd60e51b815260040161051690611d9b565b600681015460ff1680156113fe57506006810154610100900460ff165b61141a5760405162461bcd60e51b815260040161051690611dc6565b6002810154600582015460038301546001600160a01b039092169160009161144191611e13565b60038401546040516370a0823160e01b8152306004820152919250906001600160a01b038416906370a0823190602401602060405180830381865afa15801561148e573d6000803e3d6000fd5b505050506040513d601f19601f820116820180604052508101906114b29190611d0d565b10156114d05760405162461bcd60e51b815260040161051690611e2c565b60068301805462ff0000191662010000179055825460405163a9059cbb60e01b81526001600160a01b039182166004820152602481018390529083169063a9059cbb906044016020604051808303816000875af1158015611535573d6000803e3d6000fd5b505050506040513d601f19601f820116820180604052508101906115599190611d26565b6115755760405162461bcd60e51b815260040161051690611d43565b6004830154156116185760035460048481015460405163a9059cbb60e01b81526001600160a01b039384169281019290925260248201529083169063a9059cbb906044016020604051808303816000875af11580156115d8573d6000803e3d6000fd5b505050506040513d601f19601f820116820180604052508101906115fc9190611d26565b6116185760405162461bcd60e51b815260040161051690611e5a565b82546040518281526001600160a01b039091169085907f3a9c1cd29cd3be251a72ce3c367c27dc1cb697ac4589965b76a83f9a25ca071090602001610ee0565b3360009081526002602052604090205460ff166116875760405162461bcd60e51b815260040161051690611e87565b6001600160a01b038216600090815260016020526040902054829060ff166116e85760405162461bcd60e51b8152602060048201526014602482015273151bdad95b881b9bdd08185d5d1a1bdc9a5e995960621b6044820152606401610516565b6000868152602081905260409020546001600160a01b0316156117455760405162461bcd60e51b8152602060048201526015602482015274457363726f7720616c72656164792065786973747360581b6044820152606401610516565b6001600160a01b0385161580159061176557506001600160a01b03841615155b6117a55760405162461bcd60e51b8152602060048201526011602482015270496e76616c69642061646472657373657360781b6044820152606401610516565b600082116117f55760405162461bcd60e51b815260206004820152601d60248201527f416d6f756e74206d7573742062652067726561746572207468616e20300000006044820152606401610516565b6000612710611805606485611ebe565b61180f9190611ed5565b9050604051806101a00160405280876001600160a01b03168152602001866001600160a01b03168152602001856001600160a01b03168152602001848152602001828152602001620186a0815260200160001515815260200160001515815260200160001515815260200160001515815260200160001515815260200142815260200162093a80426118a19190611ef7565b905260008881526020818152604091829020835181546001600160a01b03199081166001600160a01b0392831617835585840151600184018054831691841691909117905585850151600284018054909216908316179055606085015160038301556080850151600483015560a0850151600583015560c085015160068301805460e0880151610100808a01516101208b01516101408c015161ffff1990951696151561ff001916969096179215159091029190911763ffff00001916620100009115159190910263ff0000001916176301000000931515939093029290921764ff0000000019166401000000009215159290920291909117905561016085015160078301556101809094015160089091015581518784168152908101869052878316928916918a917fa659390cb932e6b1ea09aba8819db2052575206b54a121463b49371aa8dae6a7910160405180910390a450505050505050565b600081815260208190526040902080546001600160a01b0316611a335760405162461bcd60e51b815260040161051690611d6c565b80546001600160a01b0316331480611a57575060018101546001600160a01b031633145b611aa35760405162461bcd60e51b815260206004820152601a60248201527f4e6f74206120706172747920746f207468697320657363726f770000000000006044820152606401610516565b600681015462010000900460ff16158015611aca575060068101546301000000900460ff16155b611ae65760405162461bcd60e51b815260040161051690611d9b565b60068101805464ff000000001916640100000000179055604051339083907fccaaba882d50ea23faa59a43ea26f9a73da17d2148dec254bc998b1bd5f94db890600090a35050565b80356001600160a01b0381168114611b4557600080fd5b919050565b600060208284031215611b5c57600080fd5b610ff482611b2e565b600060208284031215611b7757600080fd5b5035919050565b8015158114611b8c57600080fd5b50565b60008060408385031215611ba257600080fd5b823591506020830135611bb481611b7e565b809150509250929050565b600080600080600060a08688031215611bd757600080fd5b85359450611be760208701611b2e565b9350611bf560408701611b2e565b9250611c0360608701611b2e565b949793965091946080013592915050565b81516001600160a01b031681526101a081016020830151611c4060208401826001600160a01b03169052565b506040830151611c5b60408401826001600160a01b03169052565b50606083015160608301526080830151608083015260a083015160a083015260c0830151611c8d60c084018215159052565b5060e0830151611ca160e084018215159052565b50610100838101511515908301526101208084015115159083015261014080840151151590830152610160808401519083015261018092830151929091019190915290565b6020808252600d908201526c2737ba103a34329037bbb732b960991b604082015260600190565b600060208284031215611d1f57600080fd5b5051919050565b600060208284031215611d3857600080fd5b8151610ff481611b7e565b6020808252600f908201526e151c985b9cd9995c8819985a5b1959608a1b604082015260600190565b602080825260159082015274115cd8dc9bddc8191bd95cc81b9bdd08195e1a5cdd605a1b604082015260600190565b602080825260119082015270105b1c9958591e481c1c9bd8d95cdcd959607a1b604082015260600190565b6020808252601d908201527f4e6f7420636f6e6669726d656420627920626f74682070617274696573000000604082015260600190565b634e487b7160e01b600052601160045260246000fd5b81810381811115611e2657611e26611dfd565b92915050565b602080825260149082015273496e73756666696369656e742062616c616e636560601b604082015260600190565b602080825260139082015272119959481d1c985b9cd9995c8819985a5b1959606a1b604082015260600190565b60208082526017908201527f4e6f7420617574686f72697a6564206f70657261746f72000000000000000000604082015260600190565b8082028115828204841417611e2657611e26611dfd565b600082611ef257634e487b7160e01b600052601260045260246000fd5b500490565b80820180821115611e2657611e26611dfd56fea264697066735822122035633eeeef0e2a5d00b76d1771fb5ede2552eedfd93639e733f179fc300fe95664736f6c63430008130033",
  "linkReferences": {},
  "deployedLinkReferences": {}
}