{
  "_format": "hh-sol-artifact-1",
  "contractName": "EscrowVault",
  "sourceName": "contracts/EscrowVault.sol",
  "abi": [
    {
      "inputs": [
        {
          "internalType": "address",
          "name": "_token",
          "type": "address"
        },
        {
          "internalType": "address",
          "name": "_w1",
          "type": "address"
        },
        {
          "internalType": "address",
          "name": "_w2",
          "type": "address"
        },
        {
          "internalType": "address",
          "name": "_w3",
          "type": "address"
        },
        {
          "internalType": "uint256",
          "name": "_feePercent",
          "type": "uint256"
        }
      ],
      "stateMutability": "nonpayable",
      "type": "constructor"
    },
    {
      "anonymous": false,
      "inputs": [
        {
          "indexed": false,
          "internalType": "uint256",
          "name": "feePercent",
          "type": "uint256"
        }
      ],
      "name": "FeePercentUpdated",
      "type": "event"
    },
    {
      "anonymous": false,
      "inputs": [
        {
          "indexed": false,
          "internalType": "address",
          "name": "w1",
          "type": "address"
        },
        {
          "indexed": false,
          "internalType": "address",
          "name": "w2",
          "type": "address"
        },
        {
          "indexed": false,
          "internalType": "address",
          "name": "w3",
          "type": "address"
        }
      ],
      "name": "FeeWalletsUpdated",
      "type": "event"
    },
    {
      "anonymous": false,
      "inputs": [
        {
          "indexed": true,
          "internalType": "address",
          "name": "to",
          "type": "address"
        },
        {
          "indexed": false,
          "internalType": "uint256",
          "name": "grossAmount",
          "type": "uint256"
        },
        {
          "indexed": false,
          "internalType": "uint256",
          "name": "netAmount",
          "type": "uint256"
        },
        {
          "indexed": false,
          "internalType": "uint256",
          "name": "feeAmount",
          "type": "uint256"
        }
      ],
      "name": "Refunded",
      "type": "event"
    },
    {
      "anonymous": false,
      "inputs": [
        {
          "indexed": true,
          "internalType": "address",
          "name": "to",
          "type": "address"
        },
        {
          "indexed": false,
          "internalType": "uint256",
          "name": "grossAmount",
          "type": "uint256"
        },
        {
          "indexed": false,
          "internalType": "uint256",
          "name": "netAmount",
          "type": "uint256"
        },
        {
          "indexed": false,
          "internalType": "uint256",
          "name": "feeAmount",
          "type": "uint256"
        }
      ],
      "name": "Released",
      "type": "event"
    },
    {
      "inputs": [],
      "name": "feePercent",
      "outputs": [
        {
          "internalType": "uint256",
          "name": "",
          "type": "uint256"
        }
      ],
      "stateMutability": "view",
      "type": "function"
    },
    {
      "inputs": [],
      "name": "feeWallet1",
      "outputs": [
        {
          "internalType": "address",
          "name": "",
          "type": "address"
        }
      ],
      "stateMutability": "view",
      "type": "function"
    },
    {
      "inputs": [],
      "name": "feeWallet2",
      "outputs": [
        {
          "internalType": "address",
          "name": "",
          "type": "address"
        }
      ],
      "stateMutability": "view",
      "type": "function"
    },
    {
      "inputs": [],
      "name": "feeWallet3",
      "outputs": [
        {
          "internalType": "address",
          "name": "",
          "type": "address"
        }
      ],
      "stateMutability": "view",
      "type": "function"
    },
    {
      "inputs": [],
      "name": "owner",
      "outputs": [
        {
          "internalType": "address",
          "name": "",
          "type": "address"
        }
      ],
      "stateMutability": "view",
      "type": "function"
    },
    {
      "inputs": [
        {
          "internalType": "address",
          "name": "to",
          "type": "address"
        },
        {
          "internalType": "uint256",
          "name": "amount",
          "type": "uint256"
        }
      ],
      "name": "refund",
      "outputs": [],
      "stateMutability": "nonpayable",
      "type": "function"
    },
    {
      "inputs": [
        {
          "internalType": "address",
          "name": "to",
          "type": "address"
        },
        {
          "internalType": "uint256",
          "name": "amount",
          "type": "uint256"
        }
      ],
      "name": "release",
      "outputs": [],
      "stateMutability": "nonpayable",
      "type": "function"
    },
    {
      "inputs": [
        {
          "internalType": "uint256",
          "name": "_feePercent",
          "type": "uint256"
        }
      ],
      "name": "setFeePercent",
      "outputs": [],
      "stateMutability": "nonpayable",
      "type": "function"
    },
    {
      "inputs": [
        {
          "internalType": "address",
          "name": "_w1",
          "type": "address"
        },
        {
          "internalType": "address",
          "name": "_w2",
          "type": "address"
        },
        {
          "internalType": "address",
          "name": "_w3",
          "type": "address"
        }
      ],
      "name": "setFeeWallets",
      "outputs": [],
      "stateMutability": "nonpayable",
      "type": "function"
    },
    {
      "inputs": [
        {
          "internalType": "address",
          "name": "_owner",
          "type": "address"
        }
      ],
      "name": "setOwner",
      "outputs": [],
      "stateMutability": "nonpayable",
      "type": "function"
    },
    {
      "inputs": [],
      "name": "token",
      "outputs": [
        {
          "internalType": "contract IERC20",
          "name": "",
          "type": "address"
        }
      ],
      "stateMutability": "view",
      "type": "function"
    }
  ],
  "bytecode": "0x60a060405234801561001057600080fd5b50604051610c0c380380610c0c83398101604081905261002f916100a5565b60008054336001600160a01b0319918216179091556001600160a01b039586166080526001805482169587169590951790945560028054851693861693909317909255600380549093169316929092179055600455610103565b80516001600160a01b03811681146100a057600080fd5b919050565b600080600080600060a086880312156100bd57600080fd5b6100c686610089565b94506100d460208701610089565b93506100e260408701610089565b92506100f060608701610089565b9150608086015190509295509295909350565b608051610acb610141600039600081816101940152818161024501528181610413015281816106d9015281816107a701526108770152610acb6000f3fe608060405234801561001057600080fd5b50600436106100a95760003560e01c80637ce3489b116100715780637ce3489b1461012c5780637fd6f15c1461013f5780638da5cb5b14610156578063936e1d8314610169578063df841f091461017c578063fc0c546a1461018f57600080fd5b80630357371d146100ae57806313af4035146100c35780632c2da25c146100d6578063410085df1461010657806348d462b114610119575b600080fd5b6100c16100bc366004610940565b6101b6565b005b6100c16100d136600461096a565b610341565b6001546100e9906001600160a01b031681565b6040516001600160a01b0390911681526020015b60405180910390f35b6100c1610114366004610940565b61038d565b6100c161012736600461098c565b610505565b6100c161013a3660046109cf565b6105b3565b61014860045481565b6040519081526020016100fd565b6000546100e9906001600160a01b031681565b6002546100e9906001600160a01b031681565b6003546100e9906001600160a01b031681565b6100e97f000000000000000000000000000000000000000000000000000000000000000081565b6000546001600160a01b031633146101e95760405162461bcd60e51b81526004016101e0906109e8565b60405180910390fd5b6000612710600454836101fc9190610a21565b6102069190610a3e565b905060006102148284610a60565b905061021f82610655565b60405163a9059cbb60e01b81526001600160a01b038581166004830152602482018390527f0000000000000000000000000000000000000000000000000000000000000000169063a9059cbb906044016020604051808303816000875af115801561028e573d6000803e3d6000fd5b505050506040513d601f19601f820116820180604052508101906102b29190610a73565b6102ee5760405162461bcd60e51b815260206004820152600d60248201526c1d1c985b9cd9995c8b59985a5b609a1b60448201526064016101e0565b60408051848152602081018390529081018390526001600160a01b038516907f7b381718bec1e0dbc1241809ee9b55f3d783b95880307f002707fad981fa5069906060015b60405180910390a250505050565b6000546001600160a01b0316331461036b5760405162461bcd60e51b81526004016101e0906109e8565b600080546001600160a01b0319166001600160a01b0392909216919091179055565b6000546001600160a01b031633146103b75760405162461bcd60e51b81526004016101e0906109e8565b6000612710600454836103ca9190610a21565b6103d49190610a3e565b905060006103e28284610a60565b90506103ed82610655565b60405163a9059cbb60e01b81526001600160a01b038581166004830152602482018390527f0000000000000000000000000000000000000000000000000000000000000000169063a9059cbb906044016020604051808303816000875af115801561045c573d6000803e3d6000fd5b505050506040513d601f19601f820116820180604052508101906104809190610a73565b6104bc5760405162461bcd60e51b815260206004820152600d60248201526c1d1c985b9cd9995c8b59985a5b609a1b60448201526064016101e0565b60408051848152602081018390529081018390526001600160a01b038516907f7602f163f9cd3c891cea700d2243b6a7102008a104ad0770134f61d777661b2d90606001610333565b6000546001600160a01b0316331461052f5760405162461bcd60e51b81526004016101e0906109e8565b600180546001600160a01b038581166001600160a01b0319928316811790935560028054868316908416811790915560038054928616929093168217909255604080519384526020840192909252908201527f7951679a4b3f334d5edfe6477eb4a90fe55ac6cb52fa198d4fdf144a78ac47a09060600160405180910390a1505050565b6000546001600160a01b031633146105dd5760405162461bcd60e51b81526004016101e0906109e8565b6103e881111561061a5760405162461bcd60e51b81526020600482015260086024820152670e8dede5ad0d2ced60c31b60448201526064016101e0565b60048190556040518181527f64d1887078a96d281ed60dd69ba75bfb6b5cd2cb4c2d2538b2eb7816a4c646ea9060200160405180910390a150565b806000036106605750565b6000606461066f836032610a21565b6106799190610a3e565b90506000606461068a846019610a21565b6106949190610a3e565b90506000816106a38486610a60565b6106ad9190610a60565b60015460405163a9059cbb60e01b81526001600160a01b039182166004820152602481018690529192507f0000000000000000000000000000000000000000000000000000000000000000169063a9059cbb906044016020604051808303816000875af1158015610722573d6000803e3d6000fd5b505050506040513d601f19601f820116820180604052508101906107469190610a73565b61077e5760405162461bcd60e51b81526020600482015260096024820152681999594c4b59985a5b60ba1b60448201526064016101e0565b60025460405163a9059cbb60e01b81526001600160a01b039182166004820152602481018490527f00000000000000000000000000000000000000000000000000000000000000009091169063a9059cbb906044016020604051808303816000875af11580156107f2573d6000803e3d6000fd5b505050506040513d601f19601f820116820180604052508101906108169190610a73565b61084e5760405162461bcd60e51b81526020600482015260096024820152681999594c8b59985a5b60ba1b60448201526064016101e0565b60035460405163a9059cbb60e01b81526001600160a01b039182166004820152602481018390527f00000000000000000000000000000000000000000000000000000000000000009091169063a9059cbb906044016020604051808303816000875af11580156108c2573d6000803e3d6000fd5b505050506040513d601f19601f820116820180604052508101906108e69190610a73565b61091e5760405162461bcd60e51b81526020600482015260096024820152681999594ccb59985a5b60ba1b60448201526064016101e0565b50505050565b80356001600160a01b038116811461093b57600080fd5b919050565b6000806040838503121561095357600080fd5b61095c83610924565b946020939093013593505050565b60006020828403121561097c57600080fd5b61098582610924565b9392505050565b6000806000606084860312156109a157600080fd5b6109aa84610924565b92506109b860208501610924565b91506109c660408501610924565b90509250925092565b6000602082840312156109e157600080fd5b5035919050565b6020808252600990820152683737ba16b7bbb732b960b91b604082015260600190565b634e487b7160e01b600052601160045260246000fd5b8082028115828204841417610a3857610a38610a0b565b92915050565b600082610a5b57634e487b7160e01b600052601260045260246000fd5b500490565b81810381811115610a3857610a38610a0b565b600060208284031215610a8557600080fd5b8151801515811461098557600080fdfea2646970667358221220d7e33d8e47b3c99a378d046a297edc06912b5b4c6deecac6ea6d0f9efbcb22a464736f6c63430008180033",
  "linkReferences": {},
  "deployedLinkReferences": {}
}