{
  "_format": "hh-sol-artifact-1",
  "contractName": "EscrowVault",
  "sourceName": "contracts/EscrowVault.sol",
  "abi": [
    {
      "inputs": [
        {
          "internalType": "address",
          "name": "_token",
          "type": "address"
        },
        {
          "internalType": "address",
          "name": "_w1",
          "type": "address"
        },
        {
          "internalType": "address",
          "name": "_w2",
          "type": "address"
        },
        {
          "internalType": "uint256",
          "name": "_feePercent",
          "type": "uint256"
        }
      ],
      "stateMutability": "nonpayable",
      "type": "constructor"
    },
    {
      "anonymous": false,
      "inputs": [
        {
          "indexed": false,
          "internalType": "uint256",
          "name": "feePercent",
          "type": "uint256"
        }
      ],
      "name": "FeePercentUpdated",
      "type": "event"
    },
    {
      "anonymous": false,
      "inputs": [
        {
          "indexed": false,
          "internalType": "address",
          "name": "w1",
          "type": "address"
        },
        {
          "indexed": false,
          "internalType": "address",
          "name": "w2",
          "type": "address"
        }
      ],
      "name": "FeeWalletsUpdated",
      "type": "event"
    },
    {
      "anonymous": false,
      "inputs": [
        {
          "indexed": false,
          "internalType": "uint256",
          "name": "amount",
          "type": "uint256"
        },
        {
          "indexed": false,
          "internalType": "address",
          "name": "wallet1",
          "type": "address"
        },
        {
          "indexed": false,
          "internalType": "uint256",
          "name": "amount1",
          "type": "uint256"
        },
        {
          "indexed": false,
          "internalType": "address",
          "name": "wallet2",
          "type": "address"
        },
        {
          "indexed": false,
          "internalType": "uint256",
          "name": "amount2",
          "type": "uint256"
        }
      ],
      "name": "FeesWithdrawn",
      "type": "event"
    },
    {
      "anonymous": false,
      "inputs": [
        {
          "indexed": true,
          "internalType": "address",
          "name": "to",
          "type": "address"
        },
        {
          "indexed": false,
          "internalType": "uint256",
          "name": "grossAmount",
          "type": "uint256"
        },
        {
          "indexed": false,
          "internalType": "uint256",
          "name": "netAmount",
          "type": "uint256"
        },
        {
          "indexed": false,
          "internalType": "uint256",
          "name": "feeAmount",
          "type": "uint256"
        }
      ],
      "name": "Refunded",
      "type": "event"
    },
    {
      "anonymous": false,
      "inputs": [
        {
          "indexed": true,
          "internalType": "address",
          "name": "to",
          "type": "address"
        },
        {
          "indexed": false,
          "internalType": "uint256",
          "name": "grossAmount",
          "type": "uint256"
        },
        {
          "indexed": false,
          "internalType": "uint256",
          "name": "netAmount",
          "type": "uint256"
        },
        {
          "indexed": false,
          "internalType": "uint256",
          "name": "feeAmount",
          "type": "uint256"
        }
      ],
      "name": "Released",
      "type": "event"
    },
    {
      "inputs": [],
      "name": "accumulatedFees",
      "outputs": [
        {
          "internalType": "uint256",
          "name": "",
          "type": "uint256"
        }
      ],
      "stateMutability": "view",
      "type": "function"
    },
    {
      "inputs": [],
      "name": "feePercent",
      "outputs": [
        {
          "internalType": "uint256",
          "name": "",
          "type": "uint256"
        }
      ],
      "stateMutability": "view",
      "type": "function"
    },
    {
      "inputs": [],
      "name": "feeWallet1",
      "outputs": [
        {
          "internalType": "address",
          "name": "",
          "type": "address"
        }
      ],
      "stateMutability": "view",
      "type": "function"
    },
    {
      "inputs": [],
      "name": "feeWallet2",
      "outputs": [
        {
          "internalType": "address",
          "name": "",
          "type": "address"
        }
      ],
      "stateMutability": "view",
      "type": "function"
    },
    {
      "inputs": [],
      "name": "owner",
      "outputs": [
        {
          "internalType": "address",
          "name": "",
          "type": "address"
        }
      ],
      "stateMutability": "view",
      "type": "function"
    },
    {
      "inputs": [
        {
          "internalType": "address",
          "name": "to",
          "type": "address"
        },
        {
          "internalType": "uint256",
          "name": "amount",
          "type": "uint256"
        }
      ],
      "name": "refund",
      "outputs": [],
      "stateMutability": "nonpayable",
      "type": "function"
    },
    {
      "inputs": [
        {
          "internalType": "address",
          "name": "to",
          "type": "address"
        },
        {
          "internalType": "uint256",
          "name": "amount",
          "type": "uint256"
        }
      ],
      "name": "release",
      "outputs": [],
      "stateMutability": "nonpayable",
      "type": "function"
    },
    {
      "inputs": [
        {
          "internalType": "uint256",
          "name": "_feePercent",
          "type": "uint256"
        }
      ],
      "name": "setFeePercent",
      "outputs": [],
      "stateMutability": "nonpayable",
      "type": "function"
    },
    {
      "inputs": [
        {
          "internalType": "address",
          "name": "_w1",
          "type": "address"
        },
        {
          "internalType": "address",
          "name": "_w2",
          "type": "address"
        }
      ],
      "name": "setFeeWallets",
      "outputs": [],
      "stateMutability": "nonpayable",
      "type": "function"
    },
    {
      "inputs": [
        {
          "internalType": "address",
          "name": "_owner",
          "type": "address"
        }
      ],
      "name": "setOwner",
      "outputs": [],
      "stateMutability": "nonpayable",
      "type": "function"
    },
    {
      "inputs": [],
      "name": "token",
      "outputs": [
        {
          "internalType": "contract IERC20",
          "name": "",
          "type": "address"
        }
      ],
      "stateMutability": "view",
      "type": "function"
    },
    {
      "inputs": [],
      "name": "withdrawFees",
      "outputs": [],
      "stateMutability": "nonpayable",
      "type": "function"
    },
    {
      "inputs": [
        {
          "internalType": "address",
          "name": "erc20Token",
          "type": "address"
        },
        {
          "internalType": "address",
          "name": "to",
          "type": "address"
        }
      ],
      "name": "withdrawToken",
      "outputs": [],
      "stateMutability": "nonpayable",
      "type": "function"
    }
  ],
  "bytecode": "0x60a060405234801561001057600080fd5b50604051610dc7380380610dc783398101604081905261002f91610094565b60008054336001600160a01b0319918216179091556001600160a01b039485166080526001805482169486169490941790935560028054909316919093161790556003556100df565b80516001600160a01b038116811461008f57600080fd5b919050565b600080600080608085870312156100aa57600080fd5b6100b385610078565b93506100c160208601610078565b92506100cf60408601610078565b6060959095015193969295505050565b608051610cb1610116600039600081816101b80152818161028a0152818161062e015281816107dc01526108aa0152610cb16000f3fe608060405234801561001057600080fd5b50600436106100cf5760003560e01c8063587f5ed71161008c5780638da5cb5b116100665780638da5cb5b1461018d578063936e1d83146101a0578063fc0c546a146101b3578063fd1fb605146101da57600080fd5b8063587f5ed71461015a5780637ce3489b146101715780637fd6f15c1461018457600080fd5b80630357371d146100d457806313af4035146100e95780632c2da25c146100fc5780633aeac4e11461012c578063410085df1461013f578063476343ee14610152575b600080fd5b6100e76100e2366004610b0a565b6101ed565b005b6100e76100f7366004610b34565b610386565b60015461010f906001600160a01b031681565b6040516001600160a01b0390911681526020015b60405180910390f35b6100e761013a366004610b56565b6103d2565b6100e761014d366004610b0a565b61059a565b6100e7610720565b61016360045481565b604051908152602001610123565b6100e761017f366004610b89565b6109b4565b61016360035481565b60005461010f906001600160a01b031681565b60025461010f906001600160a01b031681565b61010f7f000000000000000000000000000000000000000000000000000000000000000081565b6100e76101e8366004610b56565b610a56565b6000546001600160a01b031633146102205760405162461bcd60e51b815260040161021790610ba2565b60405180910390fd5b6000612710600354836102339190610bdb565b61023d9190610bf8565b9050600061024b8284610c1a565b9050816004600082825461025f9190610c2d565b909155505060405163a9059cbb60e01b81526001600160a01b038581166004830152602482018390527f0000000000000000000000000000000000000000000000000000000000000000169063a9059cbb906044016020604051808303816000875af11580156102d3573d6000803e3d6000fd5b505050506040513d601f19601f820116820180604052508101906102f79190610c40565b6103335760405162461bcd60e51b815260206004820152600d60248201526c1d1c985b9cd9995c8b59985a5b609a1b6044820152606401610217565b60408051848152602081018390529081018390526001600160a01b038516907f7b381718bec1e0dbc1241809ee9b55f3d783b95880307f002707fad981fa5069906060015b60405180910390a250505050565b6000546001600160a01b031633146103b05760405162461bcd60e51b815260040161021790610ba2565b600080546001600160a01b0319166001600160a01b0392909216919091179055565b6000546001600160a01b031633146103fc5760405162461bcd60e51b815260040161021790610ba2565b6001600160a01b03811661043c5760405162461bcd60e51b81526020600482015260076024820152667a65726f2d746f60c81b6044820152606401610217565b6040516370a0823160e01b815230600482015282906000906001600160a01b038316906370a0823190602401602060405180830381865afa158015610485573d6000803e3d6000fd5b505050506040513d601f19601f820116820180604052508101906104a99190610c62565b9050600081116104e85760405162461bcd60e51b815260206004820152600a6024820152696e6f2d62616c616e636560b01b6044820152606401610217565b60405163a9059cbb60e01b81526001600160a01b0384811660048301526024820183905283169063a9059cbb906044016020604051808303816000875af1158015610537573d6000803e3d6000fd5b505050506040513d601f19601f8201168201806040525081019061055b9190610c40565b6105945760405162461bcd60e51b815260206004820152600a6024820152691cddd9595c0b59985a5b60b21b6044820152606401610217565b50505050565b6000546001600160a01b031633146105c45760405162461bcd60e51b815260040161021790610ba2565b6000612710600354836105d79190610bdb565b6105e19190610bf8565b905060006105ef8284610c1a565b905081600460008282546106039190610c2d565b909155505060405163a9059cbb60e01b81526001600160a01b038581166004830152602482018390527f0000000000000000000000000000000000000000000000000000000000000000169063a9059cbb906044016020604051808303816000875af1158015610677573d6000803e3d6000fd5b505050506040513d601f19601f8201168201806040525081019061069b9190610c40565b6106d75760405162461bcd60e51b815260206004820152600d60248201526c1d1c985b9cd9995c8b59985a5b609a1b6044820152606401610217565b60408051848152602081018390529081018390526001600160a01b038516907f7602f163f9cd3c891cea700d2243b6a7102008a104ad0770134f61d777661b2d90606001610378565b6000546001600160a01b0316331461074a5760405162461bcd60e51b815260040161021790610ba2565b600454806107845760405162461bcd60e51b81526020600482015260076024820152666e6f2d6665657360c81b6044820152606401610217565b600060048190556064610798836046610bdb565b6107a29190610bf8565b905060006107b08284610c1a565b60015460405163a9059cbb60e01b81526001600160a01b039182166004820152602481018590529192507f0000000000000000000000000000000000000000000000000000000000000000169063a9059cbb906044016020604051808303816000875af1158015610825573d6000803e3d6000fd5b505050506040513d601f19601f820116820180604052508101906108499190610c40565b6108815760405162461bcd60e51b81526020600482015260096024820152681999594c4b59985a5b60ba1b6044820152606401610217565b60025460405163a9059cbb60e01b81526001600160a01b039182166004820152602481018390527f00000000000000000000000000000000000000000000000000000000000000009091169063a9059cbb906044016020604051808303816000875af11580156108f5573d6000803e3d6000fd5b505050506040513d601f19601f820116820180604052508101906109199190610c40565b6109515760405162461bcd60e51b81526020600482015260096024820152681999594c8b59985a5b60ba1b6044820152606401610217565b600154600254604080518681526001600160a01b03938416602082015290810185905291166060820152608081018290527f763f734057b0a843d668e9e702852ed92b8578508eb772d19079cd2dd54918889060a00160405180910390a1505050565b6000546001600160a01b031633146109de5760405162461bcd60e51b815260040161021790610ba2565b6103e8811115610a1b5760405162461bcd60e51b81526020600482015260086024820152670e8dede5ad0d2ced60c31b6044820152606401610217565b60038190556040518181527f64d1887078a96d281ed60dd69ba75bfb6b5cd2cb4c2d2538b2eb7816a4c646ea9060200160405180910390a150565b6000546001600160a01b03163314610a805760405162461bcd60e51b815260040161021790610ba2565b600180546001600160a01b038481166001600160a01b03199283168117909355600280549185169190921681179091556040805192835260208301919091527f6f98d50521a00639207f151d26af510fb7d0925746673a5bf713d4a338a89007910160405180910390a15050565b80356001600160a01b0381168114610b0557600080fd5b919050565b60008060408385031215610b1d57600080fd5b610b2683610aee565b946020939093013593505050565b600060208284031215610b4657600080fd5b610b4f82610aee565b9392505050565b60008060408385031215610b6957600080fd5b610b7283610aee565b9150610b8060208401610aee565b90509250929050565b600060208284031215610b9b57600080fd5b5035919050565b6020808252600990820152683737ba16b7bbb732b960b91b604082015260600190565b634e487b7160e01b600052601160045260246000fd5b8082028115828204841417610bf257610bf2610bc5565b92915050565b600082610c1557634e487b7160e01b600052601260045260246000fd5b500490565b81810381811115610bf257610bf2610bc5565b80820180821115610bf257610bf2610bc5565b600060208284031215610c5257600080fd5b81518015158114610b4f57600080fd5b600060208284031215610c7457600080fd5b505191905056fea264697066735822122032ceda8074e7eb101693417cc957d9bb432b0fd6e5da419dfa105c8d4722d47464736f6c63430008180033",
  "linkReferences": {},
  "deployedLinkReferences": {}
}