{
  "_format": "hh-sol-artifact-1",
  "contractName": "EscrowVault",
  "sourceName": "contracts/EscrowVault.sol",
  "abi": [
    {
      "inputs": [
        {
          "internalType": "address",
          "name": "_token",
          "type": "address"
        },
        {
          "internalType": "address",
          "name": "_feeWallet",
          "type": "address"
        },
        {
          "internalType": "uint256",
          "name": "_feePercent",
          "type": "uint256"
        }
      ],
      "stateMutability": "nonpayable",
      "type": "constructor"
    },
    {
      "anonymous": false,
      "inputs": [
        {
          "indexed": false,
          "internalType": "uint256",
          "name": "feePercent",
          "type": "uint256"
        }
      ],
      "name": "FeePercentUpdated",
      "type": "event"
    },
    {
      "anonymous": false,
      "inputs": [
        {
          "indexed": false,
          "internalType": "address",
          "name": "wallet",
          "type": "address"
        }
      ],
      "name": "FeeWalletUpdated",
      "type": "event"
    },
    {
      "anonymous": false,
      "inputs": [
        {
          "indexed": false,
          "internalType": "uint256",
          "name": "amount",
          "type": "uint256"
        },
        {
          "indexed": false,
          "internalType": "address",
          "name": "wallet",
          "type": "address"
        }
      ],
      "name": "FeesWithdrawn",
      "type": "event"
    },
    {
      "anonymous": false,
      "inputs": [
        {
          "indexed": true,
          "internalType": "address",
          "name": "to",
          "type": "address"
        },
        {
          "indexed": false,
          "internalType": "uint256",
          "name": "grossAmount",
          "type": "uint256"
        },
        {
          "indexed": false,
          "internalType": "uint256",
          "name": "netAmount",
          "type": "uint256"
        },
        {
          "indexed": false,
          "internalType": "uint256",
          "name": "feeAmount",
          "type": "uint256"
        }
      ],
      "name": "Refunded",
      "type": "event"
    },
    {
      "anonymous": false,
      "inputs": [
        {
          "indexed": true,
          "internalType": "address",
          "name": "to",
          "type": "address"
        },
        {
          "indexed": false,
          "internalType": "uint256",
          "name": "grossAmount",
          "type": "uint256"
        },
        {
          "indexed": false,
          "internalType": "uint256",
          "name": "netAmount",
          "type": "uint256"
        },
        {
          "indexed": false,
          "internalType": "uint256",
          "name": "feeAmount",
          "type": "uint256"
        }
      ],
      "name": "Released",
      "type": "event"
    },
    {
      "inputs": [],
      "name": "accumulatedFees",
      "outputs": [
        {
          "internalType": "uint256",
          "name": "",
          "type": "uint256"
        }
      ],
      "stateMutability": "view",
      "type": "function"
    },
    {
      "inputs": [],
      "name": "feePercent",
      "outputs": [
        {
          "internalType": "uint256",
          "name": "",
          "type": "uint256"
        }
      ],
      "stateMutability": "view",
      "type": "function"
    },
    {
      "inputs": [],
      "name": "feeWallet",
      "outputs": [
        {
          "internalType": "address",
          "name": "",
          "type": "address"
        }
      ],
      "stateMutability": "view",
      "type": "function"
    },
    {
      "inputs": [],
      "name": "owner",
      "outputs": [
        {
          "internalType": "address",
          "name": "",
          "type": "address"
        }
      ],
      "stateMutability": "view",
      "type": "function"
    },
    {
      "inputs": [
        {
          "internalType": "address",
          "name": "to",
          "type": "address"
        },
        {
          "internalType": "uint256",
          "name": "amount",
          "type": "uint256"
        }
      ],
      "name": "refund",
      "outputs": [],
      "stateMutability": "nonpayable",
      "type": "function"
    },
    {
      "inputs": [
        {
          "internalType": "address",
          "name": "to",
          "type": "address"
        },
        {
          "internalType": "uint256",
          "name": "amount",
          "type": "uint256"
        }
      ],
      "name": "release",
      "outputs": [],
      "stateMutability": "nonpayable",
      "type": "function"
    },
    {
      "inputs": [
        {
          "internalType": "uint256",
          "name": "_feePercent",
          "type": "uint256"
        }
      ],
      "name": "setFeePercent",
      "outputs": [],
      "stateMutability": "nonpayable",
      "type": "function"
    },
    {
      "inputs": [
        {
          "internalType": "address",
          "name": "_feeWallet",
          "type": "address"
        }
      ],
      "name": "setFeeWallet",
      "outputs": [],
      "stateMutability": "nonpayable",
      "type": "function"
    },
    {
      "inputs": [
        {
          "internalType": "address",
          "name": "_owner",
          "type": "address"
        }
      ],
      "name": "setOwner",
      "outputs": [],
      "stateMutability": "nonpayable",
      "type": "function"
    },
    {
      "inputs": [],
      "name": "token",
      "outputs": [
        {
          "internalType": "contract IERC20",
          "name": "",
          "type": "address"
        }
      ],
      "stateMutability": "view",
      "type": "function"
    },
    {
      "inputs": [],
      "name": "withdrawFees",
      "outputs": [],
      "stateMutability": "nonpayable",
      "type": "function"
    },
    {
      "inputs": [
        {
          "internalType": "address",
          "name": "erc20Token",
          "type": "address"
        },
        {
          "internalType": "address",
          "name": "to",
          "type": "address"
        }
      ],
      "name": "withdrawToken",
      "outputs": [],
      "stateMutability": "nonpayable",
      "type": "function"
    }
  ],
  "bytecode": "0x60a060405234801561001057600080fd5b50604051610c3d380380610c3d83398101604081905261002f91610087565b600080546001600160a01b031990811633179091556001600160a01b0393841660805260018054939094169216919091179091556002556100c3565b80516001600160a01b038116811461008257600080fd5b919050565b60008060006060848603121561009c57600080fd5b6100a58461006b565b92506100b36020850161006b565b9150604084015190509250925092565b608051610b4a6100f36000396000818161019d0152818161025c0152818161060001526107840152610b4a6000f3fe608060405234801561001057600080fd5b50600436106100b45760003560e01c80637ce3489b116100715780637ce3489b1461012b5780637fd6f15c1461013e5780638da5cb5b1461014757806390d49b9d14610172578063f25f4b5614610185578063fc0c546a1461019857600080fd5b80630357371d146100b957806313af4035146100ce5780633aeac4e1146100e1578063410085df146100f4578063476343ee14610107578063587f5ed71461010f575b600080fd5b6100cc6100c73660046109a3565b6101bf565b005b6100cc6100dc3660046109cd565b610358565b6100cc6100ef3660046109ef565b6103a4565b6100cc6101023660046109a3565b61056c565b6100cc6106f2565b61011860035481565b6040519081526020015b60405180910390f35b6100cc610139366004610a22565b610873565b61011860025481565b60005461015a906001600160a01b031681565b6040516001600160a01b039091168152602001610122565b6100cc6101803660046109cd565b61090f565b60015461015a906001600160a01b031681565b61015a7f000000000000000000000000000000000000000000000000000000000000000081565b6000546001600160a01b031633146101f25760405162461bcd60e51b81526004016101e990610a3b565b60405180910390fd5b6000612710600254836102059190610a74565b61020f9190610a91565b9050600061021d8284610ab3565b905081600360008282546102319190610ac6565b909155505060405163a9059cbb60e01b81526001600160a01b038581166004830152602482018390527f0000000000000000000000000000000000000000000000000000000000000000169063a9059cbb906044016020604051808303816000875af11580156102a5573d6000803e3d6000fd5b505050506040513d601f19601f820116820180604052508101906102c99190610ad9565b6103055760405162461bcd60e51b815260206004820152600d60248201526c1d1c985b9cd9995c8b59985a5b609a1b60448201526064016101e9565b60408051848152602081018390529081018390526001600160a01b038516907f7b381718bec1e0dbc1241809ee9b55f3d783b95880307f002707fad981fa5069906060015b60405180910390a250505050565b6000546001600160a01b031633146103825760405162461bcd60e51b81526004016101e990610a3b565b600080546001600160a01b0319166001600160a01b0392909216919091179055565b6000546001600160a01b031633146103ce5760405162461bcd60e51b81526004016101e990610a3b565b6001600160a01b03811661040e5760405162461bcd60e51b81526020600482015260076024820152667a65726f2d746f60c81b60448201526064016101e9565b6040516370a0823160e01b815230600482015282906000906001600160a01b038316906370a0823190602401602060405180830381865afa158015610457573d6000803e3d6000fd5b505050506040513d601f19601f8201168201806040525081019061047b9190610afb565b9050600081116104ba5760405162461bcd60e51b815260206004820152600a6024820152696e6f2d62616c616e636560b01b60448201526064016101e9565b60405163a9059cbb60e01b81526001600160a01b0384811660048301526024820183905283169063a9059cbb906044016020604051808303816000875af1158015610509573d6000803e3d6000fd5b505050506040513d601f19601f8201168201806040525081019061052d9190610ad9565b6105665760405162461bcd60e51b815260206004820152600a6024820152691cddd9595c0b59985a5b60b21b60448201526064016101e9565b50505050565b6000546001600160a01b031633146105965760405162461bcd60e51b81526004016101e990610a3b565b6000612710600254836105a99190610a74565b6105b39190610a91565b905060006105c18284610ab3565b905081600360008282546105d59190610ac6565b909155505060405163a9059cbb60e01b81526001600160a01b038581166004830152602482018390527f0000000000000000000000000000000000000000000000000000000000000000169063a9059cbb906044016020604051808303816000875af1158015610649573d6000803e3d6000fd5b505050506040513d601f19601f8201168201806040525081019061066d9190610ad9565b6106a95760405162461bcd60e51b815260206004820152600d60248201526c1d1c985b9cd9995c8b59985a5b609a1b60448201526064016101e9565b60408051848152602081018390529081018390526001600160a01b038516907f7602f163f9cd3c891cea700d2243b6a7102008a104ad0770134f61d777661b2d9060600161034a565b6000546001600160a01b0316331461071c5760405162461bcd60e51b81526004016101e990610a3b565b600354806107565760405162461bcd60e51b81526020600482015260076024820152666e6f2d6665657360c81b60448201526064016101e9565b600060035560015460405163a9059cbb60e01b81526001600160a01b039182166004820152602481018390527f00000000000000000000000000000000000000000000000000000000000000009091169063a9059cbb906044016020604051808303816000875af11580156107cf573d6000803e3d6000fd5b505050506040513d601f19601f820116820180604052508101906107f39190610ad9565b61082a5760405162461bcd60e51b81526020600482015260086024820152671999594b59985a5b60c21b60448201526064016101e9565b600154604080518381526001600160a01b0390921660208301527f812bcf6853ebc81dc0a1d2323893eedad6cd086a4398311a699e0a7acdf187b391015b60405180910390a150565b6000546001600160a01b0316331461089d5760405162461bcd60e51b81526004016101e990610a3b565b6103e88111156108da5760405162461bcd60e51b81526020600482015260086024820152670e8dede5ad0d2ced60c31b60448201526064016101e9565b60028190556040518181527f64d1887078a96d281ed60dd69ba75bfb6b5cd2cb4c2d2538b2eb7816a4c646ea90602001610868565b6000546001600160a01b031633146109395760405162461bcd60e51b81526004016101e990610a3b565b600180546001600160a01b0319166001600160a01b0383169081179091556040519081527f29acee77dafcfa0143d74a7ea236018f3a6e1fa71e27fc59bbfbc6b8ca8edccd90602001610868565b80356001600160a01b038116811461099e57600080fd5b919050565b600080604083850312156109b657600080fd5b6109bf83610987565b946020939093013593505050565b6000602082840312156109df57600080fd5b6109e882610987565b9392505050565b60008060408385031215610a0257600080fd5b610a0b83610987565b9150610a1960208401610987565b90509250929050565b600060208284031215610a3457600080fd5b5035919050565b6020808252600990820152683737ba16b7bbb732b960b91b604082015260600190565b634e487b7160e01b600052601160045260246000fd5b8082028115828204841417610a8b57610a8b610a5e565b92915050565b600082610aae57634e487b7160e01b600052601260045260246000fd5b500490565b81810381811115610a8b57610a8b610a5e565b80820180821115610a8b57610a8b610a5e565b600060208284031215610aeb57600080fd5b815180151581146109e857600080fd5b600060208284031215610b0d57600080fd5b505191905056fea2646970667358221220f5c1809ce8ba0c5c8f31af7e3ce3d4094355a119eeab4fc501b0ad858600af2964736f6c63430008180033",
  "linkReferences": {},
  "deployedLinkReferences": {}
}