{
  "_format": "hh-sol-artifact-1",
  "contractName": "EscrowVault",
  "sourceName": "contracts/EscrowVault.sol",
  "abi": [
    {
      "inputs": [
        {
          "internalType": "address",
          "name": "_token",
          "type": "address"
        },
        {
          "internalType": "address",
          "name": "_w1",
          "type": "address"
        },
        {
          "internalType": "address",
          "name": "_w2",
          "type": "address"
        },
        {
          "internalType": "address",
          "name": "_w3",
          "type": "address"
        },
        {
          "internalType": "uint256",
          "name": "_feePercent",
          "type": "uint256"
        }
      ],
      "stateMutability": "nonpayable",
      "type": "constructor"
    },
    {
      "anonymous": false,
      "inputs": [
        {
          "indexed": false,
          "internalType": "uint256",
          "name": "feePercent",
          "type": "uint256"
        }
      ],
      "name": "FeePercentUpdated",
      "type": "event"
    },
    {
      "anonymous": false,
      "inputs": [
        {
          "indexed": false,
          "internalType": "address",
          "name": "w1",
          "type": "address"
        },
        {
          "indexed": false,
          "internalType": "address",
          "name": "w2",
          "type": "address"
        },
        {
          "indexed": false,
          "internalType": "address",
          "name": "w3",
          "type": "address"
        }
      ],
      "name": "FeeWalletsUpdated",
      "type": "event"
    },
    {
      "anonymous": false,
      "inputs": [
        {
          "indexed": true,
          "internalType": "address",
          "name": "to",
          "type": "address"
        },
        {
          "indexed": false,
          "internalType": "uint256",
          "name": "grossAmount",
          "type": "uint256"
        },
        {
          "indexed": false,
          "internalType": "uint256",
          "name": "netAmount",
          "type": "uint256"
        },
        {
          "indexed": false,
          "internalType": "uint256",
          "name": "feeAmount",
          "type": "uint256"
        }
      ],
      "name": "Refunded",
      "type": "event"
    },
    {
      "anonymous": false,
      "inputs": [
        {
          "indexed": true,
          "internalType": "address",
          "name": "to",
          "type": "address"
        },
        {
          "indexed": false,
          "internalType": "uint256",
          "name": "grossAmount",
          "type": "uint256"
        },
        {
          "indexed": false,
          "internalType": "uint256",
          "name": "netAmount",
          "type": "uint256"
        },
        {
          "indexed": false,
          "internalType": "uint256",
          "name": "feeAmount",
          "type": "uint256"
        }
      ],
      "name": "Released",
      "type": "event"
    },
    {
      "inputs": [],
      "name": "feePercent",
      "outputs": [
        {
          "internalType": "uint256",
          "name": "",
          "type": "uint256"
        }
      ],
      "stateMutability": "view",
      "type": "function"
    },
    {
      "inputs": [],
      "name": "feeWallet1",
      "outputs": [
        {
          "internalType": "address",
          "name": "",
          "type": "address"
        }
      ],
      "stateMutability": "view",
      "type": "function"
    },
    {
      "inputs": [],
      "name": "feeWallet2",
      "outputs": [
        {
          "internalType": "address",
          "name": "",
          "type": "address"
        }
      ],
      "stateMutability": "view",
      "type": "function"
    },
    {
      "inputs": [],
      "name": "feeWallet3",
      "outputs": [
        {
          "internalType": "address",
          "name": "",
          "type": "address"
        }
      ],
      "stateMutability": "view",
      "type": "function"
    },
    {
      "inputs": [],
      "name": "owner",
      "outputs": [
        {
          "internalType": "address",
          "name": "",
          "type": "address"
        }
      ],
      "stateMutability": "view",
      "type": "function"
    },
    {
      "inputs": [
        {
          "internalType": "address",
          "name": "to",
          "type": "address"
        },
        {
          "internalType": "uint256",
          "name": "amount",
          "type": "uint256"
        }
      ],
      "name": "refund",
      "outputs": [],
      "stateMutability": "nonpayable",
      "type": "function"
    },
    {
      "inputs": [
        {
          "internalType": "address",
          "name": "to",
          "type": "address"
        },
        {
          "internalType": "uint256",
          "name": "amount",
          "type": "uint256"
        }
      ],
      "name": "release",
      "outputs": [],
      "stateMutability": "nonpayable",
      "type": "function"
    },
    {
      "inputs": [
        {
          "internalType": "uint256",
          "name": "_feePercent",
          "type": "uint256"
        }
      ],
      "name": "setFeePercent",
      "outputs": [],
      "stateMutability": "nonpayable",
      "type": "function"
    },
    {
      "inputs": [
        {
          "internalType": "address",
          "name": "_w1",
          "type": "address"
        },
        {
          "internalType": "address",
          "name": "_w2",
          "type": "address"
        },
        {
          "internalType": "address",
          "name": "_w3",
          "type": "address"
        }
      ],
      "name": "setFeeWallets",
      "outputs": [],
      "stateMutability": "nonpayable",
      "type": "function"
    },
    {
      "inputs": [
        {
          "internalType": "address",
          "name": "_owner",
          "type": "address"
        }
      ],
      "name": "setOwner",
      "outputs": [],
      "stateMutability": "nonpayable",
      "type": "function"
    },
    {
      "inputs": [],
      "name": "token",
      "outputs": [
        {
          "internalType": "contract IERC20",
          "name": "",
          "type": "address"
        }
      ],
      "stateMutability": "view",
      "type": "function"
    },
    {
      "inputs": [
        {
          "internalType": "address",
          "name": "erc20Token",
          "type": "address"
        },
        {
          "internalType": "address",
          "name": "to",
          "type": "address"
        }
      ],
      "name": "withdrawToken",
      "outputs": [],
      "stateMutability": "nonpayable",
      "type": "function"
    }
  ],
  "bytecode": "0x60a060405234801561001057600080fd5b50604051610e39380380610e3983398101604081905261002f916100a5565b60008054336001600160a01b0319918216179091556001600160a01b039586166080526001805482169587169590951790945560028054851693861693909317909255600380549093169316929092179055600455610103565b80516001600160a01b03811681146100a057600080fd5b919050565b600080600080600060a086880312156100bd57600080fd5b6100c686610089565b94506100d460208701610089565b93506100e260408701610089565b92506100f060608701610089565b9150608086015190509295509295909350565b608051610cf8610141600039600081816101b201528181610263015281816105f9015281816108c00152818161098e0152610a5e0152610cf86000f3fe608060405234801561001057600080fd5b50600436106100b45760003560e01c80637ce3489b116100715780637ce3489b1461014a5780637fd6f15c1461015d5780638da5cb5b14610174578063936e1d8314610187578063df841f091461019a578063fc0c546a146101ad57600080fd5b80630357371d146100b957806313af4035146100ce5780632c2da25c146100e15780633aeac4e114610111578063410085df1461012457806348d462b114610137575b600080fd5b6100cc6100c7366004610b21565b6101d4565b005b6100cc6100dc366004610b4b565b61035f565b6001546100f4906001600160a01b031681565b6040516001600160a01b0390911681526020015b60405180910390f35b6100cc61011f366004610b6d565b6103ab565b6100cc610132366004610b21565b610573565b6100cc610145366004610ba0565b6106eb565b6100cc610158366004610be3565b610799565b61016660045481565b604051908152602001610108565b6000546100f4906001600160a01b031681565b6002546100f4906001600160a01b031681565b6003546100f4906001600160a01b031681565b6100f47f000000000000000000000000000000000000000000000000000000000000000081565b6000546001600160a01b031633146102075760405162461bcd60e51b81526004016101fe90610bfc565b60405180910390fd5b60006127106004548361021a9190610c35565b6102249190610c52565b905060006102328284610c74565b905061023d8261083b565b60405163a9059cbb60e01b81526001600160a01b038581166004830152602482018390527f0000000000000000000000000000000000000000000000000000000000000000169063a9059cbb906044016020604051808303816000875af11580156102ac573d6000803e3d6000fd5b505050506040513d601f19601f820116820180604052508101906102d09190610c87565b61030c5760405162461bcd60e51b815260206004820152600d60248201526c1d1c985b9cd9995c8b59985a5b609a1b60448201526064016101fe565b60408051848152602081018390529081018390526001600160a01b038516907f7b381718bec1e0dbc1241809ee9b55f3d783b95880307f002707fad981fa5069906060015b60405180910390a250505050565b6000546001600160a01b031633146103895760405162461bcd60e51b81526004016101fe90610bfc565b600080546001600160a01b0319166001600160a01b0392909216919091179055565b6000546001600160a01b031633146103d55760405162461bcd60e51b81526004016101fe90610bfc565b6001600160a01b0381166104155760405162461bcd60e51b81526020600482015260076024820152667a65726f2d746f60c81b60448201526064016101fe565b6040516370a0823160e01b815230600482015282906000906001600160a01b038316906370a0823190602401602060405180830381865afa15801561045e573d6000803e3d6000fd5b505050506040513d601f19601f820116820180604052508101906104829190610ca9565b9050600081116104c15760405162461bcd60e51b815260206004820152600a6024820152696e6f2d62616c616e636560b01b60448201526064016101fe565b60405163a9059cbb60e01b81526001600160a01b0384811660048301526024820183905283169063a9059cbb906044016020604051808303816000875af1158015610510573d6000803e3d6000fd5b505050506040513d601f19601f820116820180604052508101906105349190610c87565b61056d5760405162461bcd60e51b815260206004820152600a6024820152691cddd9595c0b59985a5b60b21b60448201526064016101fe565b50505050565b6000546001600160a01b0316331461059d5760405162461bcd60e51b81526004016101fe90610bfc565b6000612710600454836105b09190610c35565b6105ba9190610c52565b905060006105c88284610c74565b90506105d38261083b565b60405163a9059cbb60e01b81526001600160a01b038581166004830152602482018390527f0000000000000000000000000000000000000000000000000000000000000000169063a9059cbb906044016020604051808303816000875af1158015610642573d6000803e3d6000fd5b505050506040513d601f19601f820116820180604052508101906106669190610c87565b6106a25760405162461bcd60e51b815260206004820152600d60248201526c1d1c985b9cd9995c8b59985a5b609a1b60448201526064016101fe565b60408051848152602081018390529081018390526001600160a01b038516907f7602f163f9cd3c891cea700d2243b6a7102008a104ad0770134f61d777661b2d90606001610351565b6000546001600160a01b031633146107155760405162461bcd60e51b81526004016101fe90610bfc565b600180546001600160a01b038581166001600160a01b0319928316811790935560028054868316908416811790915560038054928616929093168217909255604080519384526020840192909252908201527f7951679a4b3f334d5edfe6477eb4a90fe55ac6cb52fa198d4fdf144a78ac47a09060600160405180910390a1505050565b6000546001600160a01b031633146107c35760405162461bcd60e51b81526004016101fe90610bfc565b6103e88111156108005760405162461bcd60e51b81526020600482015260086024820152670e8dede5ad0d2ced60c31b60448201526064016101fe565b60048190556040518181527f64d1887078a96d281ed60dd69ba75bfb6b5cd2cb4c2d2538b2eb7816a4c646ea9060200160405180910390a150565b806000036108465750565b60006064610855836046610c35565b61085f9190610c52565b905060006103e86108718460e1610c35565b61087b9190610c52565b905060008161088a8486610c74565b6108949190610c74565b60015460405163a9059cbb60e01b81526001600160a01b039182166004820152602481018690529192507f0000000000000000000000000000000000000000000000000000000000000000169063a9059cbb906044016020604051808303816000875af1158015610909573d6000803e3d6000fd5b505050506040513d601f19601f8201168201806040525081019061092d9190610c87565b6109655760405162461bcd60e51b81526020600482015260096024820152681999594c4b59985a5b60ba1b60448201526064016101fe565b60025460405163a9059cbb60e01b81526001600160a01b039182166004820152602481018490527f00000000000000000000000000000000000000000000000000000000000000009091169063a9059cbb906044016020604051808303816000875af11580156109d9573d6000803e3d6000fd5b505050506040513d601f19601f820116820180604052508101906109fd9190610c87565b610a355760405162461bcd60e51b81526020600482015260096024820152681999594c8b59985a5b60ba1b60448201526064016101fe565b60035460405163a9059cbb60e01b81526001600160a01b039182166004820152602481018390527f00000000000000000000000000000000000000000000000000000000000000009091169063a9059cbb906044016020604051808303816000875af1158015610aa9573d6000803e3d6000fd5b505050506040513d601f19601f82011682018060405250810190610acd9190610c87565b61056d5760405162461bcd60e51b81526020600482015260096024820152681999594ccb59985a5b60ba1b60448201526064016101fe565b80356001600160a01b0381168114610b1c57600080fd5b919050565b60008060408385031215610b3457600080fd5b610b3d83610b05565b946020939093013593505050565b600060208284031215610b5d57600080fd5b610b6682610b05565b9392505050565b60008060408385031215610b8057600080fd5b610b8983610b05565b9150610b9760208401610b05565b90509250929050565b600080600060608486031215610bb557600080fd5b610bbe84610b05565b9250610bcc60208501610b05565b9150610bda60408501610b05565b90509250925092565b600060208284031215610bf557600080fd5b5035919050565b6020808252600990820152683737ba16b7bbb732b960b91b604082015260600190565b634e487b7160e01b600052601160045260246000fd5b8082028115828204841417610c4c57610c4c610c1f565b92915050565b600082610c6f57634e487b7160e01b600052601260045260246000fd5b500490565b81810381811115610c4c57610c4c610c1f565b600060208284031215610c9957600080fd5b81518015158114610b6657600080fd5b600060208284031215610cbb57600080fd5b505191905056fea264697066735822122033c03b3e6643a9b3f06176d2635eada4a2a1976b4ffac3a45dfb488337c7723b64736f6c63430008180033",
  "linkReferences": {},
  "deployedLinkReferences": {}
}