{
  "_format": "hh-sol-artifact-1",
  "contractName": "EscrowVault",
  "sourceName": "contracts/EscrowVault.sol",
  "abi": [
    {
      "inputs": [
        {
          "internalType": "address",
          "name": "_token",
          "type": "address"
        },
        {
          "internalType": "address",
          "name": "_w1",
          "type": "address"
        },
        {
          "internalType": "address",
          "name": "_w2",
          "type": "address"
        },
        {
          "internalType": "uint256",
          "name": "_feePercent",
          "type": "uint256"
        }
      ],
      "stateMutability": "nonpayable",
      "type": "constructor"
    },
    {
      "anonymous": false,
      "inputs": [
        {
          "indexed": false,
          "internalType": "uint256",
          "name": "feePercent",
          "type": "uint256"
        }
      ],
      "name": "FeePercentUpdated",
      "type": "event"
    },
    {
      "anonymous": false,
      "inputs": [
        {
          "indexed": false,
          "internalType": "address",
          "name": "w1",
          "type": "address"
        },
        {
          "indexed": false,
          "internalType": "address",
          "name": "w2",
          "type": "address"
        }
      ],
      "name": "FeeWalletsUpdated",
      "type": "event"
    },
    {
      "anonymous": false,
      "inputs": [
        {
          "indexed": true,
          "internalType": "address",
          "name": "to",
          "type": "address"
        },
        {
          "indexed": false,
          "internalType": "uint256",
          "name": "grossAmount",
          "type": "uint256"
        },
        {
          "indexed": false,
          "internalType": "uint256",
          "name": "netAmount",
          "type": "uint256"
        },
        {
          "indexed": false,
          "internalType": "uint256",
          "name": "feeAmount",
          "type": "uint256"
        }
      ],
      "name": "Refunded",
      "type": "event"
    },
    {
      "anonymous": false,
      "inputs": [
        {
          "indexed": true,
          "internalType": "address",
          "name": "to",
          "type": "address"
        },
        {
          "indexed": false,
          "internalType": "uint256",
          "name": "grossAmount",
          "type": "uint256"
        },
        {
          "indexed": false,
          "internalType": "uint256",
          "name": "netAmount",
          "type": "uint256"
        },
        {
          "indexed": false,
          "internalType": "uint256",
          "name": "feeAmount",
          "type": "uint256"
        }
      ],
      "name": "Released",
      "type": "event"
    },
    {
      "inputs": [],
      "name": "feePercent",
      "outputs": [
        {
          "internalType": "uint256",
          "name": "",
          "type": "uint256"
        }
      ],
      "stateMutability": "view",
      "type": "function"
    },
    {
      "inputs": [],
      "name": "feeWallet1",
      "outputs": [
        {
          "internalType": "address",
          "name": "",
          "type": "address"
        }
      ],
      "stateMutability": "view",
      "type": "function"
    },
    {
      "inputs": [],
      "name": "feeWallet2",
      "outputs": [
        {
          "internalType": "address",
          "name": "",
          "type": "address"
        }
      ],
      "stateMutability": "view",
      "type": "function"
    },
    {
      "inputs": [],
      "name": "owner",
      "outputs": [
        {
          "internalType": "address",
          "name": "",
          "type": "address"
        }
      ],
      "stateMutability": "view",
      "type": "function"
    },
    {
      "inputs": [
        {
          "internalType": "address",
          "name": "to",
          "type": "address"
        },
        {
          "internalType": "uint256",
          "name": "amount",
          "type": "uint256"
        }
      ],
      "name": "refund",
      "outputs": [],
      "stateMutability": "nonpayable",
      "type": "function"
    },
    {
      "inputs": [
        {
          "internalType": "address",
          "name": "to",
          "type": "address"
        },
        {
          "internalType": "uint256",
          "name": "amount",
          "type": "uint256"
        }
      ],
      "name": "release",
      "outputs": [],
      "stateMutability": "nonpayable",
      "type": "function"
    },
    {
      "inputs": [
        {
          "internalType": "uint256",
          "name": "_feePercent",
          "type": "uint256"
        }
      ],
      "name": "setFeePercent",
      "outputs": [],
      "stateMutability": "nonpayable",
      "type": "function"
    },
    {
      "inputs": [
        {
          "internalType": "address",
          "name": "_w1",
          "type": "address"
        },
        {
          "internalType": "address",
          "name": "_w2",
          "type": "address"
        }
      ],
      "name": "setFeeWallets",
      "outputs": [],
      "stateMutability": "nonpayable",
      "type": "function"
    },
    {
      "inputs": [
        {
          "internalType": "address",
          "name": "_owner",
          "type": "address"
        }
      ],
      "name": "setOwner",
      "outputs": [],
      "stateMutability": "nonpayable",
      "type": "function"
    },
    {
      "inputs": [],
      "name": "token",
      "outputs": [
        {
          "internalType": "contract IERC20",
          "name": "",
          "type": "address"
        }
      ],
      "stateMutability": "view",
      "type": "function"
    },
    {
      "inputs": [
        {
          "internalType": "address",
          "name": "erc20Token",
          "type": "address"
        },
        {
          "internalType": "address",
          "name": "to",
          "type": "address"
        }
      ],
      "name": "withdrawToken",
      "outputs": [],
      "stateMutability": "nonpayable",
      "type": "function"
    }
  ],
  "bytecode": "0x60a060405234801561001057600080fd5b50604051610ca5380380610ca583398101604081905261002f91610094565b60008054336001600160a01b0319918216179091556001600160a01b039485166080526001805482169486169490941790935560028054909316919093161790556003556100df565b80516001600160a01b038116811461008f57600080fd5b919050565b600080600080608085870312156100aa57600080fd5b6100b385610078565b93506100c160208601610078565b92506100cf60408601610078565b6060959095015193969295505050565b608051610b8f6101166000396000818161018101528181610245015281816105db0152818161086501526109330152610b8f6000f3fe608060405234801561001057600080fd5b50600436106100a95760003560e01c80637ce3489b116100715780637ce3489b1461012c5780637fd6f15c1461013f5780638da5cb5b14610156578063936e1d8314610169578063fc0c546a1461017c578063fd1fb605146101a357600080fd5b80630357371d146100ae57806313af4035146100c35780632c2da25c146100d65780633aeac4e114610106578063410085df14610119575b600080fd5b6100c16100bc3660046109fb565b6101b6565b005b6100c16100d1366004610a25565b610341565b6001546100e9906001600160a01b031681565b6040516001600160a01b0390911681526020015b60405180910390f35b6100c1610114366004610a47565b61038d565b6100c16101273660046109fb565b610555565b6100c161013a366004610a7a565b6106cd565b61014860035481565b6040519081526020016100fd565b6000546100e9906001600160a01b031681565b6002546100e9906001600160a01b031681565b6100e97f000000000000000000000000000000000000000000000000000000000000000081565b6100c16101b1366004610a47565b61076f565b6000546001600160a01b031633146101e95760405162461bcd60e51b81526004016101e090610a93565b60405180910390fd5b6000612710600354836101fc9190610acc565b6102069190610ae9565b905060006102148284610b0b565b905061021f82610807565b60405163a9059cbb60e01b81526001600160a01b038581166004830152602482018390527f0000000000000000000000000000000000000000000000000000000000000000169063a9059cbb906044016020604051808303816000875af115801561028e573d6000803e3d6000fd5b505050506040513d601f19601f820116820180604052508101906102b29190610b1e565b6102ee5760405162461bcd60e51b815260206004820152600d60248201526c1d1c985b9cd9995c8b59985a5b609a1b60448201526064016101e0565b60408051848152602081018390529081018390526001600160a01b038516907f7b381718bec1e0dbc1241809ee9b55f3d783b95880307f002707fad981fa5069906060015b60405180910390a250505050565b6000546001600160a01b0316331461036b5760405162461bcd60e51b81526004016101e090610a93565b600080546001600160a01b0319166001600160a01b0392909216919091179055565b6000546001600160a01b031633146103b75760405162461bcd60e51b81526004016101e090610a93565b6001600160a01b0381166103f75760405162461bcd60e51b81526020600482015260076024820152667a65726f2d746f60c81b60448201526064016101e0565b6040516370a0823160e01b815230600482015282906000906001600160a01b038316906370a0823190602401602060405180830381865afa158015610440573d6000803e3d6000fd5b505050506040513d601f19601f820116820180604052508101906104649190610b40565b9050600081116104a35760405162461bcd60e51b815260206004820152600a6024820152696e6f2d62616c616e636560b01b60448201526064016101e0565b60405163a9059cbb60e01b81526001600160a01b0384811660048301526024820183905283169063a9059cbb906044016020604051808303816000875af11580156104f2573d6000803e3d6000fd5b505050506040513d601f19601f820116820180604052508101906105169190610b1e565b61054f5760405162461bcd60e51b815260206004820152600a6024820152691cddd9595c0b59985a5b60b21b60448201526064016101e0565b50505050565b6000546001600160a01b0316331461057f5760405162461bcd60e51b81526004016101e090610a93565b6000612710600354836105929190610acc565b61059c9190610ae9565b905060006105aa8284610b0b565b90506105b582610807565b60405163a9059cbb60e01b81526001600160a01b038581166004830152602482018390527f0000000000000000000000000000000000000000000000000000000000000000169063a9059cbb906044016020604051808303816000875af1158015610624573d6000803e3d6000fd5b505050506040513d601f19601f820116820180604052508101906106489190610b1e565b6106845760405162461bcd60e51b815260206004820152600d60248201526c1d1c985b9cd9995c8b59985a5b609a1b60448201526064016101e0565b60408051848152602081018390529081018390526001600160a01b038516907f7602f163f9cd3c891cea700d2243b6a7102008a104ad0770134f61d777661b2d90606001610333565b6000546001600160a01b031633146106f75760405162461bcd60e51b81526004016101e090610a93565b6103e88111156107345760405162461bcd60e51b81526020600482015260086024820152670e8dede5ad0d2ced60c31b60448201526064016101e0565b60038190556040518181527f64d1887078a96d281ed60dd69ba75bfb6b5cd2cb4c2d2538b2eb7816a4c646ea9060200160405180910390a150565b6000546001600160a01b031633146107995760405162461bcd60e51b81526004016101e090610a93565b600180546001600160a01b038481166001600160a01b03199283168117909355600280549185169190921681179091556040805192835260208301919091527f6f98d50521a00639207f151d26af510fb7d0925746673a5bf713d4a338a89007910160405180910390a15050565b806000036108125750565b60006064610821836046610acc565b61082b9190610ae9565b905060006108398284610b0b565b60015460405163a9059cbb60e01b81526001600160a01b039182166004820152602481018590529192507f0000000000000000000000000000000000000000000000000000000000000000169063a9059cbb906044016020604051808303816000875af11580156108ae573d6000803e3d6000fd5b505050506040513d601f19601f820116820180604052508101906108d29190610b1e565b61090a5760405162461bcd60e51b81526020600482015260096024820152681999594c4b59985a5b60ba1b60448201526064016101e0565b60025460405163a9059cbb60e01b81526001600160a01b039182166004820152602481018390527f00000000000000000000000000000000000000000000000000000000000000009091169063a9059cbb906044016020604051808303816000875af115801561097e573d6000803e3d6000fd5b505050506040513d601f19601f820116820180604052508101906109a29190610b1e565b6109da5760405162461bcd60e51b81526020600482015260096024820152681999594c8b59985a5b60ba1b60448201526064016101e0565b505050565b80356001600160a01b03811681146109f657600080fd5b919050565b60008060408385031215610a0e57600080fd5b610a17836109df565b946020939093013593505050565b600060208284031215610a3757600080fd5b610a40826109df565b9392505050565b60008060408385031215610a5a57600080fd5b610a63836109df565b9150610a71602084016109df565b90509250929050565b600060208284031215610a8c57600080fd5b5035919050565b6020808252600990820152683737ba16b7bbb732b960b91b604082015260600190565b634e487b7160e01b600052601160045260246000fd5b8082028115828204841417610ae357610ae3610ab6565b92915050565b600082610b0657634e487b7160e01b600052601260045260246000fd5b500490565b81810381811115610ae357610ae3610ab6565b600060208284031215610b3057600080fd5b81518015158114610a4057600080fd5b600060208284031215610b5257600080fd5b505191905056fea2646970667358221220b161311a8f65ff82a8161926878d46ec4aa3ea11a37ed4c91dbf9132c944465464736f6c63430008180033",
  "linkReferences": {},
  "deployedLinkReferences": {}
}